{
  "contractName": "LandTest",
  "abi": [
    {
      "constant": true,
      "inputs": [],
      "name": "owner",
      "outputs": [
        {
          "name": "",
          "type": "address"
        }
      ],
      "payable": false,
      "stateMutability": "view",
      "type": "function"
    },
    {
      "constant": true,
      "inputs": [],
      "name": "qry",
      "outputs": [
        {
          "name": "",
          "type": "string"
        }
      ],
      "payable": false,
      "stateMutability": "view",
      "type": "function"
    },
    {
      "constant": true,
      "inputs": [],
      "name": "Result",
      "outputs": [
        {
          "name": "",
          "type": "string"
        }
      ],
      "payable": false,
      "stateMutability": "view",
      "type": "function"
    },
    {
      "inputs": [],
      "payable": false,
      "stateMutability": "nonpayable",
      "type": "constructor"
    },
    {
      "anonymous": false,
      "inputs": [],
      "name": "CallbackGetResult",
      "type": "event"
    },
    {
      "constant": false,
      "inputs": [],
      "name": "updateResult",
      "outputs": [
        {
          "name": "",
          "type": "string"
        }
      ],
      "payable": false,
      "stateMutability": "nonpayable",
      "type": "function"
    },
    {
      "constant": false,
      "inputs": [
        {
          "name": "cap",
          "type": "string"
        }
      ],
      "name": "setResult",
      "outputs": [],
      "payable": false,
      "stateMutability": "nonpayable",
      "type": "function"
    },
    {
      "constant": true,
      "inputs": [],
      "name": "getResult",
      "outputs": [
        {
          "name": "",
          "type": "string"
        }
      ],
      "payable": false,
      "stateMutability": "view",
      "type": "function"
    },
    {
      "constant": false,
      "inputs": [
        {
          "name": "_qry",
          "type": "string"
        }
      ],
      "name": "setquery",
      "outputs": [],
      "payable": false,
      "stateMutability": "nonpayable",
      "type": "function"
    },
    {
      "constant": true,
      "inputs": [],
      "name": "getquery",
      "outputs": [
        {
          "name": "",
          "type": "string"
        }
      ],
      "payable": false,
      "stateMutability": "view",
      "type": "function"
    }
  ],
  "bytecode": "0x608060405234801561001057600080fd5b50336000806101000a81548173ffffffffffffffffffffffffffffffffffffffff021916908373ffffffffffffffffffffffffffffffffffffffff16021790555061091d806100606000396000f30060806040526004361061008e576000357c0100000000000000000000000000000000000000000000000000000000900463ffffffff16806303d6a545146100935780636bcdc698146100fc57806380ebb08e1461018c57806388e3cfda1461021c5780638da5cb5b14610285578063a0582cca146102dc578063de2927891461036c578063f4e5d599146103fc575b600080fd5b34801561009f57600080fd5b506100fa600480360381019080803590602001908201803590602001908080601f016020809104026020016040519081016040528093929190818152602001838380828437820191505050505050919291929050505061048c565b005b34801561010857600080fd5b50610111610501565b6040518080602001828103825283818151815260200191508051906020019080838360005b83811015610151578082015181840152602081019050610136565b50505050905090810190601f16801561017e5780820380516001836020036101000a031916815260200191505b509250505060405180910390f35b34801561019857600080fd5b506101a16105a3565b6040518080602001828103825283818151815260200191508051906020019080838360005b838110156101e15780820151818401526020810190506101c6565b50505050905090810190601f16801561020e5780820380516001836020036101000a031916815260200191505b509250505060405180910390f35b34801561022857600080fd5b50610283600480360381019080803590602001908201803590602001908080601f01602080910402602001604051908101604052809392919081815260200183838082843782019150505050505091929192905050506105d4565b005b34801561029157600080fd5b5061029a610649565b604051808273ffffffffffffffffffffffffffffffffffffffff1673ffffffffffffffffffffffffffffffffffffffff16815260200191505060405180910390f35b3480156102e857600080fd5b506102f161066e565b6040518080602001828103825283818151815260200191508051906020019080838360005b83811015610331578082015181840152602081019050610316565b50505050905090810190601f16801561035e5780820380516001836020036101000a031916815260200191505b509250505060405180910390f35b34801561037857600080fd5b5061038161070c565b6040518080602001828103825283818151815260200191508051906020019080838360005b838110156103c15780820151818401526020810190506103a6565b50505050905090810190601f1680156103ee5780820380516001836020036101000a031916815260200191505b509250505060405180910390f35b34801561040857600080fd5b506104116107ae565b6040518080602001828103825283818151815260200191508051906020019080838360005b83811015610451578082015181840152602081019050610436565b50505050905090810190601f16801561047e5780820380516001836020036101000a031916815260200191505b509250505060405180910390f35b6000809054906101000a900473ffffffffffffffffffffffffffffffffffffffff1673ffffffffffffffffffffffffffffffffffffffff163373ffffffffffffffffffffffffffffffffffffffff161415156104e757600080fd5b80600290805190602001906104fd92919061084c565b5050565b606060028054600181600116156101000203166002900480601f0160208091040260200160405190810160405280929190818152602001828054600181600116156101000203166002900480156105995780601f1061056e57610100808354040283529160200191610599565b820191906000526020600020905b81548152906001019060200180831161057c57829003601f168201915b5050505050905090565b60607fb5741bb8403865de6d1a3ff9344c5430936d7d8be1dbfe3b5f976ee97a43757460405160405180910390a190565b6000809054906101000a900473ffffffffffffffffffffffffffffffffffffffff1673ffffffffffffffffffffffffffffffffffffffff163373ffffffffffffffffffffffffffffffffffffffff1614151561062f57600080fd5b806001908051906020019061064592919061084c565b5050565b6000809054906101000a900473ffffffffffffffffffffffffffffffffffffffff1681565b60028054600181600116156101000203166002900480601f0160208091040260200160405190810160405280929190818152602001828054600181600116156101000203166002900480156107045780601f106106d957610100808354040283529160200191610704565b820191906000526020600020905b8154815290600101906020018083116106e757829003601f168201915b505050505081565b606060018054600181600116156101000203166002900480601f0160208091040260200160405190810160405280929190818152602001828054600181600116156101000203166002900480156107a45780601f10610779576101008083540402835291602001916107a4565b820191906000526020600020905b81548152906001019060200180831161078757829003601f168201915b5050505050905090565b60018054600181600116156101000203166002900480601f0160208091040260200160405190810160405280929190818152602001828054600181600116156101000203166002900480156108445780601f1061081957610100808354040283529160200191610844565b820191906000526020600020905b81548152906001019060200180831161082757829003601f168201915b505050505081565b828054600181600116156101000203166002900490600052602060002090601f016020900481019282601f1061088d57805160ff19168380011785556108bb565b828001600101855582156108bb579182015b828111156108ba57825182559160200191906001019061089f565b5b5090506108c891906108cc565b5090565b6108ee91905b808211156108ea5760008160009055506001016108d2565b5090565b905600a165627a7a723058204ee669233bab281e9a2509b40883720fe515c6d962e89ed088dffe3ea7ec97720029",
  "source": "pragma solidity ^0.4.17;\r\n\r\ncontract LandTest {\r\n  // Contract owner\r\n  address public owner;\r\n\r\n  // BTC Marketcap Storage\r\n  string public Result;\r\n  \r\n  string public qry;\r\n\r\n  // Callback function\r\n  event CallbackGetResult();\r\n\r\n  function LandTest() public {\r\n    owner = msg.sender;\r\n  }\r\n\r\n  function updateResult() public returns (string) {\r\n    // Calls the callback function\r\n    emit CallbackGetResult();\r\n  }\r\n\r\n  function setResult(string cap) public {\r\n    // If it isn't sent by a trusted oracle\r\n    // a.k.a ourselves, ignore it\r\n    require(msg.sender == owner);\r\n    Result = cap;\r\n  }\r\n\r\n  function getResult() constant public returns (string) {\r\n    return Result;\r\n  }\r\n  \r\n  function setquery(string _qry) public {\r\n    // If it isn't sent by a trusted oracle\r\n    // a.k.a ourselves, ignore it\r\n    require(msg.sender == owner);\r\n    qry = _qry;\r\n  }\r\n  \r\n  function getquery() constant public returns (string) {\r\n    return qry;\r\n  }\r\n}",
  "sourcePath": "/Users/nikhil_das23/Desktop/blockchain/land_registration/git/NodeProject/contracts/LandTest.sol",
  "compiler": {
    "name": "solc",
    "version": "0.4.23+commit.124ca40d.Emscripten.clang"
  },
  "schemaVersion": "2.0.0",
  "updatedAt": "2018-05-20T07:51:01.706Z"
}